{
	"ConflictExample.sol": {
		"Bronze": {
			"abi": [
				{
					"inputs": [],
					"name": "component",
					"outputs": [
						{
							"internalType": "string",
							"name": "",
							"type": "string"
						}
					],
					"stateMutability": "pure",
					"type": "function"
				}
			],
			"devdoc": {
				"kind": "dev",
				"methods": {},
				"version": 1
			},
			"evm": {
				"assembly": "    /* \"ConflictExample.sol\":295:505  contract Bronze is Copper, Tin {... */\n  mstore(0x40, 0x80)\n  callvalue\n  dup1\n  iszero\n  tag_1\n  jumpi\n  0x00\n  dup1\n  revert\ntag_1:\n  pop\n  dataSize(sub_0)\n  dup1\n  dataOffset(sub_0)\n  0x00\n  codecopy\n  0x00\n  return\nstop\n\nsub_0: assembly {\n        /* \"ConflictExample.sol\":295:505  contract Bronze is Copper, Tin {... */\n      mstore(0x40, 0x80)\n      callvalue\n      dup1\n      iszero\n      tag_1\n      jumpi\n      0x00\n      dup1\n      revert\n    tag_1:\n      pop\n      jumpi(tag_2, lt(calldatasize, 0x04))\n      shr(0xe0, calldataload(0x00))\n      dup1\n      0x79a0f079\n      eq\n      tag_3\n      jumpi\n    tag_2:\n      0x00\n      dup1\n      revert\n        /* \"ConflictExample.sol\":332:503  function component() public pure override(Copper, Tin) returns (string memory) {... */\n    tag_3:\n      tag_4\n      tag_5\n      jump\t// in\n    tag_4:\n      mload(0x40)\n      tag_6\n      swap2\n      swap1\n      tag_7\n      jump\t// in\n    tag_6:\n      mload(0x40)\n      dup1\n      swap2\n      sub\n      swap1\n      return\n    tag_5:\n        /* \"ConflictExample.sol\":396:409  string memory */\n      0x60\n        /* \"ConflictExample.sol\":452:470  Copper.component() */\n      tag_9\n        /* \"ConflictExample.sol\":452:468  Copper.component */\n      tag_10\n        /* \"ConflictExample.sol\":452:470  Copper.component() */\n      jump\t// in\n    tag_9:\n        /* \"ConflictExample.sol\":479:494  Tin.component() */\n      tag_11\n        /* \"ConflictExample.sol\":479:492  Tin.component */\n      tag_12\n        /* \"ConflictExample.sol\":479:494  Tin.component() */\n      jump\t// in\n    tag_11:\n        /* \"ConflictExample.sol\":435:495  abi.encodePacked(Copper.component(), \" + \", Tin.component()) */\n      add(0x20, mload(0x40))\n      tag_13\n      swap3\n      swap2\n      swap1\n      tag_14\n      jump\t// in\n    tag_13:\n      mload(0x40)\n      0x20\n      dup2\n      dup4\n      sub\n      sub\n      dup2\n      mstore\n      swap1\n      0x40\n      mstore\n        /* \"ConflictExample.sol\":421:496  return string(abi.encodePacked(Copper.component(), \" + \", Tin.component())) */\n      swap1\n      pop\n        /* \"ConflictExample.sol\":332:503  function component() public pure override(Copper, Tin) returns (string memory) {... */\n      swap1\n      jump\t// out\n        /* \"ConflictExample.sol\":79:175  function component() public pure virtual returns (string memory){... */\n    tag_10:\n        /* \"ConflictExample.sol\":129:142  string memory */\n      0x60\n        /* \"ConflictExample.sol\":153:168  return \"copper\" */\n      mload(0x40)\n      dup1\n      0x40\n      add\n      0x40\n      mstore\n      dup1\n      0x06\n      dup2\n      mstore\n      0x20\n      add\n      0x636f707065720000000000000000000000000000000000000000000000000000\n      dup2\n      mstore\n      pop\n      swap1\n      pop\n        /* \"ConflictExample.sol\":79:175  function component() public pure virtual returns (string memory){... */\n      swap1\n      jump\t// out\n        /* \"ConflictExample.sol\":197:291  function component() public pure virtual returns (string memory) {... */\n    tag_12:\n        /* \"ConflictExample.sol\":247:260  string memory */\n      0x60\n        /* \"ConflictExample.sol\":272:284  return \"tin\" */\n      mload(0x40)\n      dup1\n      0x40\n      add\n      0x40\n      mstore\n      dup1\n      0x03\n      dup2\n      mstore\n      0x20\n      add\n      0x74696e0000000000000000000000000000000000000000000000000000000000\n      dup2\n      mstore\n      pop\n      swap1\n      pop\n        /* \"ConflictExample.sol\":197:291  function component() public pure virtual returns (string memory) {... */\n      swap1\n      jump\t// out\n        /* \"#utility.yul\":7:106   */\n    tag_17:\n        /* \"#utility.yul\":59:65   */\n      0x00\n        /* \"#utility.yul\":93:98   */\n      dup2\n        /* \"#utility.yul\":87:99   */\n      mload\n        /* \"#utility.yul\":77:99   */\n      swap1\n      pop\n        /* \"#utility.yul\":7:106   */\n      swap2\n      swap1\n      pop\n      jump\t// out\n        /* \"#utility.yul\":112:281   */\n    tag_18:\n        /* \"#utility.yul\":196:207   */\n      0x00\n        /* \"#utility.yul\":230:236   */\n      dup3\n        /* \"#utility.yul\":225:228   */\n      dup3\n        /* \"#utility.yul\":218:237   */\n      mstore\n        /* \"#utility.yul\":270:274   */\n      0x20\n        /* \"#utility.yul\":265:268   */\n      dup3\n        /* \"#utility.yul\":261:275   */\n      add\n        /* \"#utility.yul\":246:275   */\n      swap1\n      pop\n        /* \"#utility.yul\":112:281   */\n      swap3\n      swap2\n      pop\n      pop\n      jump\t// out\n        /* \"#utility.yul\":287:426   */\n    tag_19:\n        /* \"#utility.yul\":376:382   */\n      dup3\n        /* \"#utility.yul\":371:374   */\n      dup2\n        /* \"#utility.yul\":366:369   */\n      dup4\n        /* \"#utility.yul\":360:383   */\n      mcopy\n        /* \"#utility.yul\":417:418   */\n      0x00\n        /* \"#utility.yul\":408:414   */\n      dup4\n        /* \"#utility.yul\":403:406   */\n      dup4\n        /* \"#utility.yul\":399:415   */\n      add\n        /* \"#utility.yul\":392:419   */\n      mstore\n        /* \"#utility.yul\":287:426   */\n      pop\n      pop\n      pop\n      jump\t// out\n        /* \"#utility.yul\":432:534   */\n    tag_20:\n        /* \"#utility.yul\":473:479   */\n      0x00\n        /* \"#utility.yul\":524:526   */\n      0x1f\n        /* \"#utility.yul\":520:527   */\n      not\n        /* \"#utility.yul\":515:517   */\n      0x1f\n        /* \"#utility.yul\":508:513   */\n      dup4\n        /* \"#utility.yul\":504:518   */\n      add\n        /* \"#utility.yul\":500:528   */\n      and\n        /* \"#utility.yul\":490:528   */\n      swap1\n      pop\n        /* \"#utility.yul\":432:534   */\n      swap2\n      swap1\n      pop\n      jump\t// out\n        /* \"#utility.yul\":540:917   */\n    tag_21:\n        /* \"#utility.yul\":628:631   */\n      0x00\n        /* \"#utility.yul\":656:695   */\n      tag_32\n        /* \"#utility.yul\":689:694   */\n      dup3\n        /* \"#utility.yul\":656:695   */\n      tag_17\n      jump\t// in\n    tag_32:\n        /* \"#utility.yul\":711:782   */\n      tag_33\n        /* \"#utility.yul\":775:781   */\n      dup2\n        /* \"#utility.yul\":770:773   */\n      dup6\n        /* \"#utility.yul\":711:782   */\n      tag_18\n      jump\t// in\n    tag_33:\n        /* \"#utility.yul\":704:782   */\n      swap4\n      pop\n        /* \"#utility.yul\":791:856   */\n      tag_34\n        /* \"#utility.yul\":849:855   */\n      dup2\n        /* \"#utility.yul\":844:847   */\n      dup6\n        /* \"#utility.yul\":837:841   */\n      0x20\n        /* \"#utility.yul\":830:835   */\n      dup7\n        /* \"#utility.yul\":826:842   */\n      add\n        /* \"#utility.yul\":791:856   */\n      tag_19\n      jump\t// in\n    tag_34:\n        /* \"#utility.yul\":881:910   */\n      tag_35\n        /* \"#utility.yul\":903:909   */\n      dup2\n        /* \"#utility.yul\":881:910   */\n      tag_20\n      jump\t// in\n    tag_35:\n        /* \"#utility.yul\":876:879   */\n      dup5\n        /* \"#utility.yul\":872:911   */\n      add\n        /* \"#utility.yul\":865:911   */\n      swap2\n      pop\n        /* \"#utility.yul\":632:917   */\n      pop\n        /* \"#utility.yul\":540:917   */\n      swap3\n      swap2\n      pop\n      pop\n      jump\t// out\n        /* \"#utility.yul\":923:1236   */\n    tag_7:\n        /* \"#utility.yul\":1036:1040   */\n      0x00\n        /* \"#utility.yul\":1074:1076   */\n      0x20\n        /* \"#utility.yul\":1063:1072   */\n      dup3\n        /* \"#utility.yul\":1059:1077   */\n      add\n        /* \"#utility.yul\":1051:1077   */\n      swap1\n      pop\n        /* \"#utility.yul\":1123:1132   */\n      dup2\n        /* \"#utility.yul\":1117:1121   */\n      dup2\n        /* \"#utility.yul\":1113:1133   */\n      sub\n        /* \"#utility.yul\":1109:1110   */\n      0x00\n        /* \"#utility.yul\":1098:1107   */\n      dup4\n        /* \"#utility.yul\":1094:1111   */\n      add\n        /* \"#utility.yul\":1087:1134   */\n      mstore\n        /* \"#utility.yul\":1151:1229   */\n      tag_37\n        /* \"#utility.yul\":1224:1228   */\n      dup2\n        /* \"#utility.yul\":1215:1221   */\n      dup5\n        /* \"#utility.yul\":1151:1229   */\n      tag_21\n      jump\t// in\n    tag_37:\n        /* \"#utility.yul\":1143:1229   */\n      swap1\n      pop\n        /* \"#utility.yul\":923:1236   */\n      swap3\n      swap2\n      pop\n      pop\n      jump\t// out\n        /* \"#utility.yul\":1242:1390   */\n    tag_22:\n        /* \"#utility.yul\":1344:1355   */\n      0x00\n        /* \"#utility.yul\":1381:1384   */\n      dup2\n        /* \"#utility.yul\":1366:1384   */\n      swap1\n      pop\n        /* \"#utility.yul\":1242:1390   */\n      swap3\n      swap2\n      pop\n      pop\n      jump\t// out\n        /* \"#utility.yul\":1396:1786   */\n    tag_23:\n        /* \"#utility.yul\":1502:1505   */\n      0x00\n        /* \"#utility.yul\":1530:1569   */\n      tag_40\n        /* \"#utility.yul\":1563:1568   */\n      dup3\n        /* \"#utility.yul\":1530:1569   */\n      tag_17\n      jump\t// in\n    tag_40:\n        /* \"#utility.yul\":1585:1674   */\n      tag_41\n        /* \"#utility.yul\":1667:1673   */\n      dup2\n        /* \"#utility.yul\":1662:1665   */\n      dup6\n        /* \"#utility.yul\":1585:1674   */\n      tag_22\n      jump\t// in\n    tag_41:\n        /* \"#utility.yul\":1578:1674   */\n      swap4\n      pop\n        /* \"#utility.yul\":1683:1748   */\n      tag_42\n        /* \"#utility.yul\":1741:1747   */\n      dup2\n        /* \"#utility.yul\":1736:1739   */\n      dup6\n        /* \"#utility.yul\":1729:1733   */\n      0x20\n        /* \"#utility.yul\":1722:1727   */\n      dup7\n        /* \"#utility.yul\":1718:1734   */\n      add\n        /* \"#utility.yul\":1683:1748   */\n      tag_19\n      jump\t// in\n    tag_42:\n        /* \"#utility.yul\":1773:1779   */\n      dup1\n        /* \"#utility.yul\":1768:1771   */\n      dup5\n        /* \"#utility.yul\":1764:1780   */\n      add\n        /* \"#utility.yul\":1757:1780   */\n      swap2\n      pop\n        /* \"#utility.yul\":1506:1786   */\n      pop\n        /* \"#utility.yul\":1396:1786   */\n      swap3\n      swap2\n      pop\n      pop\n      jump\t// out\n        /* \"#utility.yul\":1792:1945   */\n    tag_24:\n        /* \"#utility.yul\":1932:1937   */\n      0x202b200000000000000000000000000000000000000000000000000000000000\n        /* \"#utility.yul\":1928:1929   */\n      0x00\n        /* \"#utility.yul\":1920:1926   */\n      dup3\n        /* \"#utility.yul\":1916:1930   */\n      add\n        /* \"#utility.yul\":1909:1938   */\n      mstore\n        /* \"#utility.yul\":1792:1945   */\n      pop\n      jump\t// out\n        /* \"#utility.yul\":1951:2351   */\n    tag_25:\n        /* \"#utility.yul\":2111:2114   */\n      0x00\n        /* \"#utility.yul\":2132:2216   */\n      tag_45\n        /* \"#utility.yul\":2214:2215   */\n      0x03\n        /* \"#utility.yul\":2209:2212   */\n      dup4\n        /* \"#utility.yul\":2132:2216   */\n      tag_22\n      jump\t// in\n    tag_45:\n        /* \"#utility.yul\":2125:2216   */\n      swap2\n      pop\n        /* \"#utility.yul\":2225:2318   */\n      tag_46\n        /* \"#utility.yul\":2314:2317   */\n      dup3\n        /* \"#utility.yul\":2225:2318   */\n      tag_24\n      jump\t// in\n    tag_46:\n        /* \"#utility.yul\":2343:2344   */\n      0x03\n        /* \"#utility.yul\":2338:2341   */\n      dup3\n        /* \"#utility.yul\":2334:2345   */\n      add\n        /* \"#utility.yul\":2327:2345   */\n      swap1\n      pop\n        /* \"#utility.yul\":1951:2351   */\n      swap2\n      swap1\n      pop\n      jump\t// out\n        /* \"#utility.yul\":2357:3058   */\n    tag_14:\n        /* \"#utility.yul\":2638:2641   */\n      0x00\n        /* \"#utility.yul\":2660:2755   */\n      tag_48\n        /* \"#utility.yul\":2751:2754   */\n      dup3\n        /* \"#utility.yul\":2742:2748   */\n      dup6\n        /* \"#utility.yul\":2660:2755   */\n      tag_23\n      jump\t// in\n    tag_48:\n        /* \"#utility.yul\":2653:2755   */\n      swap2\n      pop\n        /* \"#utility.yul\":2772:2920   */\n      tag_49\n        /* \"#utility.yul\":2916:2919   */\n      dup3\n        /* \"#utility.yul\":2772:2920   */\n      tag_25\n      jump\t// in\n    tag_49:\n        /* \"#utility.yul\":2765:2920   */\n      swap2\n      pop\n        /* \"#utility.yul\":2937:3032   */\n      tag_50\n        /* \"#utility.yul\":3028:3031   */\n      dup3\n        /* \"#utility.yul\":3019:3025   */\n      dup5\n        /* \"#utility.yul\":2937:3032   */\n      tag_23\n      jump\t// in\n    tag_50:\n        /* \"#utility.yul\":2930:3032   */\n      swap2\n      pop\n        /* \"#utility.yul\":3049:3052   */\n      dup2\n        /* \"#utility.yul\":3042:3052   */\n      swap1\n      pop\n        /* \"#utility.yul\":2357:3058   */\n      swap4\n      swap3\n      pop\n      pop\n      pop\n      jump\t// out\n\n    auxdata: 0xa26469706673582212200183fbfc7fb721e24a662db5007ca693db90c281fc318fca54f2a7a2087f8b5f64736f6c63430008190033\n}\n",
				"bytecode": {
					"linkReferences": {},
					"object": "6080604052348015600e575f80fd5b506102748061001c5f395ff3fe608060405234801561000f575f80fd5b5060043610610029575f3560e01c806379a0f0791461002d575b5f80fd5b61003561004b565b604051610042919061016c565b60405180910390f35b6060610055610082565b61005d6100bf565b60405160200161006e929190610210565b604051602081830303815290604052905090565b60606040518060400160405280600681526020017f636f707065720000000000000000000000000000000000000000000000000000815250905090565b60606040518060400160405280600381526020017f74696e0000000000000000000000000000000000000000000000000000000000815250905090565b5f81519050919050565b5f82825260208201905092915050565b8281835e5f83830152505050565b5f601f19601f8301169050919050565b5f61013e826100fc565b6101488185610106565b9350610158818560208601610116565b61016181610124565b840191505092915050565b5f6020820190508181035f8301526101848184610134565b905092915050565b5f81905092915050565b5f6101a0826100fc565b6101aa818561018c565b93506101ba818560208601610116565b80840191505092915050565b7f202b2000000000000000000000000000000000000000000000000000000000005f82015250565b5f6101fa60038361018c565b9150610205826101c6565b600382019050919050565b5f61021b8285610196565b9150610226826101ee565b91506102328284610196565b9150819050939250505056fea26469706673582212200183fbfc7fb721e24a662db5007ca693db90c281fc318fca54f2a7a2087f8b5f64736f6c63430008190033",
					"opcodes": "PUSH1 0x80 PUSH1 0x40 MSTORE CALLVALUE DUP1 ISZERO PUSH1 0xE JUMPI PUSH0 DUP1 REVERT JUMPDEST POP PUSH2 0x274 DUP1 PUSH2 0x1C PUSH0 CODECOPY PUSH0 RETURN INVALID PUSH1 0x80 PUSH1 0x40 MSTORE CALLVALUE DUP1 ISZERO PUSH2 0xF JUMPI PUSH0 DUP1 REVERT JUMPDEST POP PUSH1 0x4 CALLDATASIZE LT PUSH2 0x29 JUMPI PUSH0 CALLDATALOAD PUSH1 0xE0 SHR DUP1 PUSH4 0x79A0F079 EQ PUSH2 0x2D JUMPI JUMPDEST PUSH0 DUP1 REVERT JUMPDEST PUSH2 0x35 PUSH2 0x4B JUMP JUMPDEST PUSH1 0x40 MLOAD PUSH2 0x42 SWAP2 SWAP1 PUSH2 0x16C JUMP JUMPDEST PUSH1 0x40 MLOAD DUP1 SWAP2 SUB SWAP1 RETURN JUMPDEST PUSH1 0x60 PUSH2 0x55 PUSH2 0x82 JUMP JUMPDEST PUSH2 0x5D PUSH2 0xBF JUMP JUMPDEST PUSH1 0x40 MLOAD PUSH1 0x20 ADD PUSH2 0x6E SWAP3 SWAP2 SWAP1 PUSH2 0x210 JUMP JUMPDEST PUSH1 0x40 MLOAD PUSH1 0x20 DUP2 DUP4 SUB SUB DUP2 MSTORE SWAP1 PUSH1 0x40 MSTORE SWAP1 POP SWAP1 JUMP JUMPDEST PUSH1 0x60 PUSH1 0x40 MLOAD DUP1 PUSH1 0x40 ADD PUSH1 0x40 MSTORE DUP1 PUSH1 0x6 DUP2 MSTORE PUSH1 0x20 ADD PUSH32 0x636F707065720000000000000000000000000000000000000000000000000000 DUP2 MSTORE POP SWAP1 POP SWAP1 JUMP JUMPDEST PUSH1 0x60 PUSH1 0x40 MLOAD DUP1 PUSH1 0x40 ADD PUSH1 0x40 MSTORE DUP1 PUSH1 0x3 DUP2 MSTORE PUSH1 0x20 ADD PUSH32 0x74696E0000000000000000000000000000000000000000000000000000000000 DUP2 MSTORE POP SWAP1 POP SWAP1 JUMP JUMPDEST PUSH0 DUP2 MLOAD SWAP1 POP SWAP2 SWAP1 POP JUMP JUMPDEST PUSH0 DUP3 DUP3 MSTORE PUSH1 0x20 DUP3 ADD SWAP1 POP SWAP3 SWAP2 POP POP JUMP JUMPDEST DUP3 DUP2 DUP4 MCOPY PUSH0 DUP4 DUP4 ADD MSTORE POP POP POP JUMP JUMPDEST PUSH0 PUSH1 0x1F NOT PUSH1 0x1F DUP4 ADD AND SWAP1 POP SWAP2 SWAP1 POP JUMP JUMPDEST PUSH0 PUSH2 0x13E DUP3 PUSH2 0xFC JUMP JUMPDEST PUSH2 0x148 DUP2 DUP6 PUSH2 0x106 JUMP JUMPDEST SWAP4 POP PUSH2 0x158 DUP2 DUP6 PUSH1 0x20 DUP7 ADD PUSH2 0x116 JUMP JUMPDEST PUSH2 0x161 DUP2 PUSH2 0x124 JUMP JUMPDEST DUP5 ADD SWAP2 POP POP SWAP3 SWAP2 POP POP JUMP JUMPDEST PUSH0 PUSH1 0x20 DUP3 ADD SWAP1 POP DUP2 DUP2 SUB PUSH0 DUP4 ADD MSTORE PUSH2 0x184 DUP2 DUP5 PUSH2 0x134 JUMP JUMPDEST SWAP1 POP SWAP3 SWAP2 POP POP JUMP JUMPDEST PUSH0 DUP2 SWAP1 POP SWAP3 SWAP2 POP POP JUMP JUMPDEST PUSH0 PUSH2 0x1A0 DUP3 PUSH2 0xFC JUMP JUMPDEST PUSH2 0x1AA DUP2 DUP6 PUSH2 0x18C JUMP JUMPDEST SWAP4 POP PUSH2 0x1BA DUP2 DUP6 PUSH1 0x20 DUP7 ADD PUSH2 0x116 JUMP JUMPDEST DUP1 DUP5 ADD SWAP2 POP POP SWAP3 SWAP2 POP POP JUMP JUMPDEST PUSH32 0x202B200000000000000000000000000000000000000000000000000000000000 PUSH0 DUP3 ADD MSTORE POP JUMP JUMPDEST PUSH0 PUSH2 0x1FA PUSH1 0x3 DUP4 PUSH2 0x18C JUMP JUMPDEST SWAP2 POP PUSH2 0x205 DUP3 PUSH2 0x1C6 JUMP JUMPDEST PUSH1 0x3 DUP3 ADD SWAP1 POP SWAP2 SWAP1 POP JUMP JUMPDEST PUSH0 PUSH2 0x21B DUP3 DUP6 PUSH2 0x196 JUMP JUMPDEST SWAP2 POP PUSH2 0x226 DUP3 PUSH2 0x1EE JUMP JUMPDEST SWAP2 POP PUSH2 0x232 DUP3 DUP5 PUSH2 0x196 JUMP JUMPDEST SWAP2 POP DUP2 SWAP1 POP SWAP4 SWAP3 POP POP POP JUMP INVALID LOG2 PUSH5 0x6970667358 0x22 SLT KECCAK256 ADD DUP4 0xFB 0xFC PUSH32 0xB721E24A662DB5007CA693DB90C281FC318FCA54F2A7A2087F8B5F64736F6C63 NUMBER STOP ADDMOD NOT STOP CALLER "
				},
				"gasEstimates": {
					"creation": {
						"codeDepositCost": "125600",
						"executionCost": "169",
						"totalCost": "125769"
					},
					"external": {
						"component()": "infinite"
					}
				},
				"methodIdentifiers": {
					"component()": "79a0f079"
				}
			},
			"storageLayout": {
				"storage": [],
				"types": null
			},
			"userdoc": {
				"kind": "user",
				"methods": {},
				"version": 1
			}
		}
	}
}